:100000000C94B3000C94D4000C94D4000C94D40041
:100010000C94D4000C9465140C9440140C94D400EB
:100020000C94D4000C94D4000C94D4000C94D40000
:100030000C94D4000C94D4000C94D4000C94D400F0
:100040000C94D4000C94D4000C94D4000C94D400E0
:100050000C94D4000C94D4000C94D4000C94D400D0
:100060000C94D4000C94D4000C94D4000C94D400C0
:100070000C94D4000C94D4000C94D4000C94D400B0
:100080000C94D4000C94D4000C94D4000C94D400A0
:100090000C94D4000C94D4000C94D4000C94D40090
:1000A0000C94D4000C94D4000C94D4000C94D40080
:1000B0000C94D4000C94D4000C94D4000C94D40070
:1000C0000C94D4000C94D4000C94D4000C94D40060
:1000D0000C94D4000C94D4000C94D4000C94D40050
:1000E0000C94D40007634236B79BD8A71A396856D8
:1000F00018AEBAAB558C1D3CB7CC5763BD6DEDFD4A
:10010000753EF6177231BF000000803F0800000006
:10011000BE922449123EABAAAA2ABECDCCCC4C3EFC
:1001200000000080BEABAAAAAA3E00000000BF00EB
:100130000000803F0000000000084178D3BB4387E7
:10014000D1133D190E3CC3BD4282AD2B3E68EC82FB
:1001500076BED98FE1A93E4C80EFFFBE01C4FF7F80
:100160003F000000000011241FBECFEFD1E2DEBF30
:10017000CDBF00E00CBF18E3A0E0B2E0EEEBF8E387
:1001800000E00BBF02C007900D92A832B107D9F76B
:100190001BE3A8E2B8E301C01D92A13BB107E1F760
:1001A0000E9494160C945D1C0C94000086E69EE060
:1001B0000197F1F700004098419880E388B9429A8E
:1001C000EFEFF7E43197F1F700C000004298E6E660
:1001D000FEE03197F1F700004098419888B9429AC3
:1001E000EFEFF7E43197F1F700C000004298E6E640
:1001F000FEE03197F1F700004098419888B9429AA3
:100200008FEF97E40197F1F700C000004298E6E60F
:10021000FEE03197F1F700004098419880E288B9FC
:10022000429A8FEF97E40197F1F700C000004298DF
:10023000089598B19F7098B998B1282F207F922B7C
:1002400098B940984198429AEFEFF7E43197F1F767
:1002500000C00000429898B19F7098B998B18295FB
:10026000807F892B88B940984198429A8FEF97E414
:100270000197F1F700C00000429808950E94D6004F
:1002800086E69EE00197F1F7000088E20E941901DE
:1002900081E00E94190186E00E9419018EE00E940F
:1002A000190180E80E941901089598B19F7098B9CA
:1002B00098B1282F207F922B98B9409A4198429A62
:1002C000EFEFF7E43197F1F700C00000429898B1E2
:1002D0009F7098B998B18295807F892B88B9409A90
:1002E0004198429A8FEF97E40197F1F700C0000020
:1002F0004298089580E80E9419010895CF93DF93F2
:10030000EC018881882331F021960E945501899162
:100310008823D9F7DF91CF910895823079F0833027
:1003200018F48130C9F405C0833069F08430A1F439
:100330000FC0862F81580E9419010895862F81547D
:100340000E9419010895862F8D560E941901089563
:10035000862F8D520E94190108950F931F93CF93FA
:10036000DF938A01E901882311F0662319F40E94C2
:100370007A0102C00E948D01C530D10571F4C80117
:1003800060E177E20E94361CCB01C096909313394E
:10039000809312390E94550103C0C430D105B9F4CD
:1003A000C80168EE73E00E94361CCB0170931939C6
:1003B000609318396AE070E00E94361CC0969093F2
:1003C000E03A8093DF3A0E94550181E001C080E06D
:1003D000C330D10511F08130B1F4C80164E670E09A
:1003E0000E94361CCB0170931939609318396AE06A
:1003F00070E00E94361CC0969093083A8093073AAA
:100400000E94550181E0C230D10511F08130B1F474
:100410002AE030E0C801B9010E94361CCB0170937C
:10042000193960931839B9010E94361CC09690930F
:10043000FC398093FB390E94550181E0C130D10520
:1004400011F0813061F4C8016AE070E00E94361C4E
:10045000C0969093DE3A8093DD3A0E945501C630F3
:10046000D1051CF085E40E945501DF91CF911F91C9
:100470000F9108959C01FB018617970771F1880F72
:10048000991F820F931F6AE070E00E944A1C8E172A
:100490009F0731F1C901880F991F880F991F880F95
:1004A000991F820F931F6AE070E00E944A1C8E170A
:1004B0009F07C9F0C901880F991F880F991F880FDE
:1004C000991F821B930B6AE070E00E944A1C8E17F2
:1004D0009F0761F484E090E0089581E090E0089542
:1004E00082E090E0089583E090E0089580E090E05D
:1004F0000895833091050CF0039708958430910599
:100500000CF0049708952F923F924F925F926F9252
:100510007F928F929F92AF92BF92CF92DF92EF9293
:10052000FF920F931F93CF93DF93CDB7DEB76C97F6
:100530000FB6F894DEBF0FBECDBF2091133A3091B5
:10054000143A2150304040912E3850912F385A8F14
:10055000498F80912638909127389A878987ECE3D4
:10056000F8E360903C3820903D3870903E383380FE
:10057000909140389D8BA581AE8BB0911639BF8B81
:10058000E0911739E88F4091E13A5091E23A5E8765
:100590004D878091E33A9091E43A988B8F87A091B0
:1005A000E53AB091E63ABA8BA98B898D9A8D880F7E
:1005B000991FFC01E951F54CF887EF834424552439
:1005C000C901880F991F820F931F880F991F880FE9
:1005D000991F880F991FAC01421B530B5C8B4B8BEF
:1005E0000F2EF9E0AF2EFAE3BF2EF02DC201432CFF
:1005F000572C722C1C01C1010E9479028C01880FBA
:10060000991F865E964CDC010D90BC91A02DBA839B
:10061000A9837D010894E108F1088B899C898E0DDE
:100620009F1D880F991F8E5D994FFC010190F081ED
:10063000E02DFC87EB870894211C311CC1010E942E
:100640007902880F991F865E964CDC010D90BC9153
:10065000A02DBC83AB834D01089481089108C7018C
:10066000880F991F8E0D9F1D880F991F880F991F46
:10067000880F991F8E199F09880D991D880F991F42
:100680008E5D994FFC01808191812B853C85280FDF
:10069000391F3C8F2B8FC10101960E947902880F70
:1006A000991F865E964CDC010D90BC91A02DBE83F7
:1006B000AD836D010894C108D108C401880F991F4A
:1006C000880D991D880F991F880F991F880F991FF2
:1006D000881999098C0D9D1D880F991F8E5D994F62
:1006E000FC01808191812B8D3C8D820F931FAF8106
:1006F000B8858D939D93B887AF83E985FA858E176A
:100700009F070CF053C0FD013297208131813A8759
:1007100029871C8E1B8E38010894611C711C44248F
:100720005524689441F8400E511E89899A89AB8DF1
:10073000BC8D0A171B0721F5C8010E947902880F9A
:10074000991F8A0D9B1DFC010190F081E02DFE8711
:10075000ED87C3010E947902880F991F8A0D9B1DA6
:10076000DC010D90BC91A02DB88BAF87C2010E9417
:100770007902880F991F8A0D9B1DFC018081918150
:100780002B8D3C8D2F5F3F4F3C8F2B8F23303105BE
:1007900071F69A8B898B3D813D8B4E814E8B5B80B0
:1007A0004C8069807A8053E05F8B188EC701880F78
:1007B000991F8E0D9F1D880F991F880F991F880FF5
:1007C000991F8E199F098C0D9D1D880F991F8E5D95
:1007D000994FDC018D919C91EB84FC84E80EF91E0D
:1007E000C601880F991F8C0D9D1D880F991F880FBA
:1007F000991F880F991F8C199D09880D991D880FC5
:10080000991F8E5D994FFC0180819181E80EF91E40
:10081000AF81B8851196FC92EE92E985FA85EE16C5
:10082000FF060CF053C0662477248824992468942A
:1008300081F8800E911E68010894C11CD11C7A8633
:1008400069864D845E8489899A896F847888298530
:100850003A8502171307F9F4C8010E947902880F3C
:10086000991F8A0D9B1DDC014D905C90C4010E9474
:100870007902880F991F8A0D9B1DFC016080718091
:10088000C6010E947902880F991F8A0D9B1DDC0109
:100890008D919C911197E985FA853196FA87E987C0
:1008A000E330F105A1F65E864D869A8B898B788AB6
:1008B0006F86FB81FD8B2C812E8B5D804E80698045
:1008C0007A80FA86E98633E03F8B188E43E024165F
:1008D000310409F090CE272C898D9A8D0396909340
:1008E0002F3880932E3889859A8590932738809366
:1008F0002638ECE3F8E360923C3820923D38509281
:100900003E3843829D8990934038AE89A583BF8944
:10091000B0931639E88DE09317392D853E853093D5
:10092000E23A2093E13A4F8558895093E43A409354
:10093000E33A89899A899093E63A8093E53A83E08D
:1009400090E09093F7398093F6396C960FB6F8944F
:10095000DEBF0FBECDBFDF91CF911F910F91FF90F2
:10096000EF90DF90CF90BF90AF909F908F907F904F
:100970006F905F904F903F902F9008952F923F92ED
:100980004F925F926F927F928F929F92AF92BF929F
:10099000CF92DF92EF92FF920F931F93CF93DF934B
:1009A000CDB7DEB7E2970FB6F894DEBF0FBECDBF6E
:1009B0002091133A3091143A2150304040912E3812
:1009C00050912F3858AB4FA70F2EF4E62F2E33241B
:1009D000F02DECE3F8E350913C385FA380913D3873
:1009E00088A790913E389BA3A381ACA3B0914038D7
:1009F000B9A745814AA7509142385DA387818EA34C
:100A0000909116399BA7A0911739ACA7E091E13AD4
:100A1000F091E23AF88BEF874091E33A5091E43A53
:100A20005A8349838091E53A9091E63A9E838D837B
:100A30008FA598A9880F991FDC01A951B54CBA8FD1
:100A4000A98F00E010E0C901880F991F820F931F42
:100A5000880F991F880F991F880F991FFC01E21BAF
:100A6000F30BFEA7EDA70F2EF9E0CF2EFAE3DF2E52
:100A7000F02D1E8B0D8B04C02F89388D3E8B2D8B56
:100A80008D899E890E947E027C01880F991F865E57
:100A9000964CDC010D90BC91A02DB887AF835D0111
:100AA0000894A108B1088DA59EA58A0D9B1D880FED
:100AB000991F8E5D994FFC010190F081E02DFA8B1A
:100AC000E98B2D893E892F5F3F4F388F2F8BC901CE
:100AD0000E947E02880F991F865E964CDC010D9065
:100AE000BC91A02DBA87A9872D010894410851080F
:100AF000C501880F991F8A0D9B1D880F991F880FAC
:100B0000991F880F991F8A199B09840D951D880FBD
:100B1000991F8E5D994FFC018081918129893A89C5
:100B2000280F391F3C8F2B8F8F89988D01960E943B
:100B30007E02880F991F865E964CDC010D90BC9159
:100B4000A02DBC87AB874D01089481089108C20194
:100B5000880F991F840D951D880F991F880F991F65
:100B6000880F991F84199509880D991D880F991F61
:100B70008E5D994FFC010190F081E02DFE8FED8F8D
:100B80000B8D1C8D0E0F1F1F8D899E8903960E9451
:100B90007E02880F991F865E964CDC010D90BC91F9
:100BA000A02DBE87AD873D01089461087108C4017E
:100BB000880F991F880D991D880F991F880F991FFD
:100BC000880F991F88199909860D971D880F991FFD
:100BD0008E5D994FFC010190F081E02DFC83EB8349
:100BE000CF01800F911F298D3A8D3C8B2B8BD90122
:100BF00011969C938E93821593050CF065C01C0191
:100C00008D899E890E9479028C011E8A1D8A2D89F8
:100C10003E8902171307E1F5C8010E947E02880F82
:100C2000991F8C0D9D1DDC010D90BC91A02DB88BE2
:100C3000AF878D899E8901960E947E02880F991F39
:100C40008C0D9D1DFC010190F081E02DFA83E9835C
:100C50008D899E8902960E947E02880F991F8C0DB5
:100C60009D1DDC010D90BC91A02DBE83AD838D89AF
:100C70009E8903960E947E02880F991F8C0D9D1DF0
:100C8000FC0180819181A7EEBAE311969C938E932B
:100C9000ED89FE893196FE8BED8BE430F10509F08C
:100CA000B6CFFD85FDA32E852EA33B8539A74C85A8
:100CB0004AA759855BA38A858CA39F819FA3A8859A
:100CC000A8A7B4E0BBA71CA6C501880F991F8A0D71
:100CD0009B1D880F991F880F991F880F991F8A19CC
:100CE0009B09880D991D880F991F8E5D994FFC01F6
:100CF0008081918129893A89280F391F38A32F8F44
:100D0000C301880F991F860D971D880F991F880FA3
:100D1000991F880F991F86199709840D951D880FB3
:100D2000991F8E5D994FDC010D90BC91A02DBAA347
:100D3000A9A38B819C81820F931F8D01080F191F1E
:100D4000EB89FC8913830283021513050CF06BC039
:100D50001AAA19AA17010894211C311C97012E5FA9
:100D60003F4F3C832B83A7014D5F5F4F5E8B4D8BC5
:100D7000A9A9BAA9EA16FB06C1F5C7010E947E021D
:100D8000880F991F8C0D9D1DFC010190F081E02DB5
:100D9000F88BEF87C1010E947E02880F991F8C0D8E
:100DA0009D1DDC010D90BC91A02DBA83A9838B8180
:100DB0009C810E947E02880F991F8C0D9D1DFC0155
:100DC0000190F081E02DFE83ED838D899E890E9444
:100DD0007E02880F991F8C0D9D1DDC018D919C91C9
:100DE0001197E7EEFAE39183808329A93AA92F5F4F
:100DF0003F4F3AAB29AB2430310509F0B9CF3985E3
:100E00003DA34A854EA35D8559A78E858AA79B85FC
:100E10009BA3AC85ACA3BF81BFA3E885E8A718015D
:100E2000F4E0FBA71CA6C501880F991F8A0D9B1D26
:100E3000880F991F880F991F880F991F8A199B097E
:100E4000860D971D880F991F8E5D994FDC018D913E
:100E50009C91E989FA89E80FF91FFA8BE98BC301A4
:100E6000880F991F860D971D880F991F880F991F4E
:100E7000880F991F86199709880D991D880F991F4A
:100E80008E5D994FDC010D90BC91A02DBC83AB838E
:100E9000C401880F991F880D991D880F991F880F0D
:100EA000991F880F991F88199909840D951D880F1E
:100EB000991F8E5D994FFC010190F081E02DFE8B12
:100EC000ED8B89899A898A0F9B1F8F01080F191F43
:100ED000AB89BC8915961C930E93149702151305C4
:100EE0000CF06BC01AAA19AA57010894A11CB11CD6
:100EF00088249924689481F88E0C9F1C0F2EF3E0AF
:100F00002F2E3324F02D2E0C3F1C29A93AA9E216CE
:100F1000F306B1F5C7010E947E02880F991F8C0D60
:100F20009D1DDC010D90BC91A02DB88BAF87C50134
:100F30000E947E02880F991F8C0D9D1DFC0101905F
:100F4000F081E02DFA83E983C4010E947E02880FBC
:100F5000991F8C0D9D1DDC010D90BC91A02DBE83B1
:100F6000AD83C1010E947E02880F991F8C0D9D1DCB
:100F7000FC0180819181A7EEBAE311969C938E9338
:100F8000E9A9FAA93196FAABE9ABE430F10509F029
:100F9000BCCFF985FDA32A852EA33B8539A74C85B7
:100FA0004AA75D855BA38E858CA39F819FA3A8859F
:100FB000A8A71801B4E0BBA71CA6C201880F991FFF
:100FC000840D951D880F991F880F991F880F991FF1
:100FD00084199509860D971D880F991F8E5D994F6D
:100FE000FC01A080B1808B8D9C8D8A0D9B1D0B8197
:100FF0001C81080F191FAB89BC8917961C930E938F
:101000001697021513050CF06EC0222433244701F5
:101010000894811C911C66247724689461F86E0CF6
:101020007F1C0F2EF3E04F2E5524F02D4E0C5F1C2D
:101030003C822B822F843888EB81FC81EE16FF06E0
:1010400099F5C7010E947E02880F991F8C0D9D1D86
:10105000DC012D903C90C4010E947E02880F991FF4
:101060008C0D9D1DFC010190F081E02DFA83E98338
:10107000C3010E947E02880F991F8C0D9D1DDC010B
:101080000D90BC91A02DBE83AD83C2010E947E0253
:10109000880F991F8C0D9D1DFC0180819181A7EE09
:1010A000BAE311969C938E93EB81FC813196FC837D
:1010B000EB83E430F10509F0BFCF388A2F86FB853A
:1010C000FDA32C852EA33D8539A74E854AA75985BA
:1010D0005BA38A858CA39F819FA3A885A8A71801DD
:1010E000B4E0BBA71CA68F8D98A1ED89FE898E0F59
:1010F0009F1F8501080F191FAB89BC8919961C9386
:101100000E931897021513050CF06EC04424552455
:1011100057010894A11CB11C88249924689481F873
:101120008E0C9F1C0F2EF3E06F2E7724F02D6E0C8B
:101130007F1C2D803E805C824B824F845888EB81DF
:10114000FC81EE16FF0681F5C7010E947E02880F22
:10115000991F8C0D9D1DDC014D905C90C5010E9476
:101160007E02880F991F8C0D9D1DFC010190F0815E
:10117000E02DFA83E983C4010E947E02880F991F43
:101180008C0D9D1DDC012D903C90C3010E947E02C0
:10119000880F991F8C0D9D1DFC0180819181A7EE08
:1011A000BAE311969C938E93EB81FC813196FC837C
:1011B000EB83E430F10519F63E822D82588A4F8682
:1011C000FD85FDA32E852EA3398539A74A854AA71B
:1011D0005B855BA38C858CA39F819FA3A885A8A713
:1011E0001801B4E0BBA71CA689A19AA1E989FA89D4
:1011F0008E0F9F1F0D8D1E8D080F191FAB89BC8987
:101200001B961C930E931A97021513050CF06EC0D3
:101210004424552457010894A11CB11C8824992406
:10122000689481F88E0C9F1C0F2EF3E06F2E7724AC
:10123000F02D6E0C7F1C2D803E805C824B824F8493
:101240005888EB81FC81EE16FF0681F5C7010E94EC
:101250007E02880F991F8C0D9D1DDC014D905C90C6
:10126000C5010E947E02880F991F8C0D9D1DFC01F7
:101270000190F081E02DFA83E983C4010E947E028F
:10128000880F991F8C0D9D1DDC012D903C90C30192
:101290000E947E02880F991F8C0D9D1DFC0180818C
:1012A0009181A7EEBAE311969C938E93EB81FC811A
:1012B0003196FC83EB83E430F10519F63E822D82F2
:1012C000588A4F86FB85FDA32C852EA3398539A727
:1012D0004A854AA75D855BA38E858CA39F819FA3CA
:1012E000A885A8A71801B4E0BBA71CA6E98DFA8DB4
:1012F0003C96FA8FE98F2F89388D2430310509F01B
:10130000BBCB8FA598A9489690932F3880932E3801
:101310003092273820922638ECE3F8E33FA130934F
:101320003C3848A540933D385BA150933E388CA192
:10133000838399A590934038AAA5A583BDA1B093B6
:1013400042382EA127833BA5309316394CA54093F4
:1013500017398F8598899093E23A8093E13AA98171
:10136000BA81B093E43AA093E33AED81FE81F09321
:10137000E63AE093E53A84E090E09093F739809381
:10138000F639E2960FB6F894DEBF0FBECDBFDF91FF
:10139000CF911F910F91FF90EF90DF90CF90BF9072
:1013A000AF909F908F907F906F905F904F903F9005
:1013B0002F9008952F923F924F925F926F927F925B
:1013C0008F929F92AF92BF92CF92DF92EF92FF9255
:1013D0000F931F93CF93DF93CDB7DEB766970FB60A
:1013E000F894DEBF0FBECDBF109249381092483836
:1013F00080E090E029E03AE32E5F3F4F3A8B298B63
:101400000F2EFAEBEF2EF7E3FF2EF02D0F2EFBE061
:101410008F2EFAE39F2EF02D22243324689421F896
:101420006AE179E3260E371E0097C1F481E090E06F
:101430009093143A8093133AA9E0BAE311969C93DF
:101440008E9382E190E0E989FA899183808389E033
:1014500090E090930E3A80930D3A1AC080914038F4
:10146000909141389093143A8093133A86E090E03B
:10147000A9E0BAE38D939C9388E090E0E989FA892A
:101480009183808381E190E090930E3A80930D3AAE
:101490001092123A1092113A0AE119E30C5F1F4FB1
:1014A00010924538109244381092F9391092F83958
:1014B00040E050E08091093A90910A3A01979C01EE
:1014C000220F331F820F931F2091113A3091123A4D
:1014D000820F931F880F991F8E0D9F1DDC016D9148
:1014E0007C9111976115710509F44FC0F401808159
:1014F0009181FC013197CF01880F991F8E0F9F1F9B
:101500002091443830914538820F931F880F991FDE
:101510008E0D9F1DDC018D919C9111970097A9F173
:1015200080910D3A90910E3A01979C01220F331F42
:10153000820F931F840F951F880F991F8E0D9F1D7B
:10154000DC014D915C91119741155105F1F0AAE133
:10155000B9E36D937C93CF01880F991F8E0F9F1F66
:101560002091443830914538820F931F880F991F7E
:101570008E0D9F1DFC0180819181D1018D939C93E3
:10158000F801518340830E9483028091F839909141
:10159000F939AC014F5F5F4F5093F9394093F839F7
:1015A000433051050CF486CF8091443890914538F2
:1015B00001969093453880934438833091050CF41C
:1015C00073CF8091113A9091123A01969093123A0A
:1015D0008093113A833091050CF462CF80913C38AE
:1015E00090913D38AC01415050408091133A909118
:1015F000143ABC0161507040CA01880F991F840FD2
:10160000951F9C01220F331F220F331F220F331F00
:10161000281B390B420F531F8AEF91E0689F9001FE
:10162000699F300D789F300D1124240F351FF9016B
:10163000EC5BF54F208131812115310511F00C94BF
:101640003E1316C08D919D91009729F470932D380B
:1016500060932C380DC0819391936F5F7F4F2F5F04
:101660003F4F2B30310571F770932D3860932C3834
:1016700080913E3890913F38AC014150504080916C
:101680003C3890913D38BC0161507040CA01880FD0
:10169000991F840F951F9C01220F331F220F331FA8
:1016A000220F331F281B390B420F531F8AEF91E083
:1016B000689F9001699F300D789F300D1124240F91
:1016C000351FF901EC5BF54F208131812115310582
:1016D00009F08AC716C08D919D91009729F47093E7
:1016E0002D3860932C380DC0819391936F5F7F4F9D
:1016F0002F5F3F4F2B30310571F770932D3860937A
:101700002C381092F9391092F83980914038909124
:101710004138AC014150504080913E3890913F3863
:10172000BC0161507040CA01880F991F840F951F3A
:101730009C01220F331F220F331F220F331F281B40
:10174000390B420F531F8AEF91E0689F9001699F08
:10175000300D789F300D1124240F351FF901EC5BFB
:10176000F54F208131812115310509F0EFC620C0E8
:10177000A90181919191009749F43093F93920930F
:10178000F83970932D3860932C3812C08D939D9347
:101790006F5F7F4F9A012F5F3F4F2B30310541F72D
:1017A0003093F9392093F83970932D3860932C38A1
:1017B00040902A3850902B385C824B8260902C38B5
:1017C00070902D3878866F82461457040CF050C5FF
:1017D000C201880F991F9C01265B374C3A832983ED
:1017E000BC01625D764C7E876D87DB01A20160E003
:1017F00072E06301F9018D01819191914F5F5F4F1B
:101800009C0121503040C901880F991F820F931FFE
:10181000880F991F880F991F880F991F821B930BA0
:1018200020813181820F931F0197880F991F860FA6
:10183000971FDC018D919C91D8018D939D938D0113
:101840004C155D05CCF240E050E0CC24DD24EB816A
:10185000FC813197FC87EB87CF01880F991F9C0192
:10186000225D364C4F805884440C551C588A4F8654
:101870008EE299E30297480E591E5E824D82B701AF
:101880006A5F7F4F7A8769870F2EF0E2AF2EF9E308
:10189000BF2EF02D3C8A2B8A19012101D10112960D
:1018A0008D919C911397009709F09BC08D919C910D
:1018B000119713969C938E931297E981FA81608118
:1018C000718129853A8500E010E0C801880F991FD1
:1018D000800F911F880F991FDC01A654B84CC801D6
:1018E00001969E8B8D8B8D919D918617970709F0A0
:1018F0006CC0CA01880F991F8A0D9B1D6D887E8858
:10190000FC017182608240FF5EC0C601880F991F92
:101910008F51954CFC018081918186159705F1F4DA
:10192000CA010197880F991F8A0D9B1DFC018081B8
:101930009181861597054CF4F20180819181833065
:10194000910561F582E090E034C0F20180819181DF
:101950008330910531F581E090E02BC0CA010197F9
:10196000880F991F8A0D9B1DFC01808191816D88D4
:101970007E88861597054CF4F20180819181833031
:10198000910591F481E090E014C0F2018081918191
:101990008330910561F482E090E00BC081E090E03B
:1019A00008C082E090E005C082E090E002C081E0E3
:1019B00090E0F601EE0FFF1FEF5FF54C80839183FF
:1019C0000894C11CD11C4F5F5F4F2A173B0709F0D9
:1019D0008ACF0F5F1F4F2A5F3F4F0231110509F079
:1019E00074CF44245524689441F8240C351C298173
:1019F0003A812E5F3F4F3A8329836D817E8126167F
:101A0000370609F04ACF2B883C880B811C810F5F79
:101A10001F4F5093F7394093F639D0922F38C09228
:101A20002E3881E090E09093163A8093153AEEE2DA
:101A3000F9E38B859C85880F991F8E0F9F1FCB80A4
:101A4000DC80CC0CDD1CEC0DFD1D60817181DC01A6
:101A50008D919C910E943A02F601EB5EF54C9183C8
:101A60008083000F111F0F2EF5E1AF2EFAE3BF2E7A
:101A7000F02DA00EB11E0F851889025D164C68016D
:101A80008501AD84BE84F501819191915F016081F2
:101A900071810E943A02D8018D939D938D01AC14FF
:101AA000BD0489F74F80588450922B3840922A38D1
:101AB00080914838909149380196909349388093A5
:101AC0004838823091050CF4AFCC80912C3890913D
:101AD0002D38909329388093283880914038909100
:101AE00041389093143A8093133A84E090E09093B5
:101AF0000A3A8093093A8DE090E090930C3A8093F3
:101B00000B3A83E090E090930E3A80930D3A87E091
:101B100090E09093103A80930F3A1092123A1092FC
:101B2000113A0F2EFAEB6F2EF7E37F2EF02D0DE01A
:101B30001AE30F2EFAE1EF2EF9E3FF2EF02DAA247F
:101B4000BB246894A1F8AE0CBF1C88249924689427
:101B500082F88E0C9F1C10924538109244380F2E3C
:101B6000F6E0CF2EDD24F02DCE0CDF1C1092F939DB
:101B70001092F8391092003A1092FF3940E050E08C
:101B80008091093A90910A3A01979C01220F331FE4
:101B9000820F931F2091113A3091123A820F931FB6
:101BA000880F991F860D971DDC016D917C9111970F
:101BB0006115710509F46EC080910B3A90910C3A51
:101BC00001979C01220F331F820F931F20914438ED
:101BD00030914538820F931F880F991F860D971DEE
:101BE000DC01ED91FC911197309709F453C0D801B5
:101BF0008D919C912C01089441085108C201880FD5
:101C0000991F840D951D2091F8393091F939820F73
:101C1000931F880F991F860D971DDC018D919C9154
:101C200011970097B9F180910F3A9091103A01976E
:101C30009C01220F331F820F931F840F951F880F63
:101C4000991F860D971DDC014D915C9111974115EF
:101C5000510501F1D7016D937C93D501ED93FC9370
:101C6000C201880F991F840D951D2091F83930917C
:101C7000F939820F931F880F991F860D971DFC015C
:101C800080819181D4018D939C93F601518340838F
:101C90000E94BE048091FF399091003AAC014F5FE1
:101CA0005F4F5093003A4093FF39433051050CF495
:101CB00067CF8091F8399091F93901969093F9396D
:101CC0008093F839833091050CF454CF80914438D7
:101CD00090914538019690934538809344388330ED
:101CE00091050CF443CF8091113A9091123A0196EC
:101CF0009093123A8093113A833091050CF42BCFD4
:101D000040913C3850913D38415050406091133AD9
:101D10007091143A61507040CA01880F991F840F66
:101D2000951F9C01220F331F220F331F220F331FD9
:101D3000281B390B420F531F2AEF31E0629FC0016D
:101D4000639F900D729F900D1124840F951FFC01CD
:101D5000EC5BF54F80819181009709F0B0C316C00C
:101D60008D919D91009729F470932D3860932C38B4
:101D70000DC0819391936F5F7F4F2F5F3F4F2B304B
:101D8000310571F770932D3860932C3840913E38AF
:101D900050913F384150504060913C3870913D38EF
:101DA00061507040CA01880F991F840F951F9C01D4
:101DB000220F331F220F331F220F331F281B390B13
:101DC000420F531F2AEF31E0629FC001639F900DC5
:101DD000729F900D1124840F951FFC01EC5BF54F51
:101DE00080819181009709F023C316C08D919D9148
:101DF000009729F470932D3860932C380DC081938F
:101E000091936F5F7F4F2F5F3F4F2B30310571F7FD
:101E100070932D3860932C38409140385091413860
:101E20004150504060913E3870913F386150704051
:101E3000CA01880F991F840F951F9C01220F331F21
:101E4000220F331F220F331F281B390B420F531F42
:101E50002AEF31E0629FC001639F900D729F900D49
:101E60001124840F951FFC01EC5BF54F808191815B
:101E7000009709F096C216C08D919D91009729F4A4
:101E800070932D3860932C380DC0819391936F5FC0
:101E90007F4F2F5F3F4F2B30310571F770932D38F7
:101EA00060932C381092F9391092F83940914238E9
:101EB00050914338415050406091403870914138C2
:101EC00061507040CA01880F991F840F951F9C01B3
:101ED000220F331F220F331F220F331F281B390BF2
:101EE000420F531F2AEF31E0629FC001639F900DA4
:101EF000729F900D1124840F951FFC01EC5BF54F30
:101F000080819181009709F003C220C0A9018D91C1
:101F10009D91009749F43093F9392093F8397093E3
:101F20002D3860932C3812C0819391936F5F7F4F4F
:101F30009A012F5F3F4F2B30310541F73093F9392C
:101F40002093F83970932D3860932C38A09028385E
:101F5000B090293840902C3850902D385A824982C0
:101F6000A414B5040CF0AEC1C501880F991F9C01E3
:101F7000265B374C3C832B83BC01625D764C7E83B1
:101F80006D83DB01A50160E072E0F9018D018191B3
:101F900091914F5F5F4F9C0121503040C901880FE4
:101FA000991F820F931F880F991F880F991F880F01
:101FB000991F821B930B20813181820F931F019700
:101FC000880F991F860F971FDC018D919C91D80176
:101FD0008D939D938D0149805A8044155505BCF21F
:101FE00020914438309145386091F8397091F93931
:101FF00040E050E000E010E0C501019798878F8332
:10200000880F991F0F2EFEE28F2EF9E39F2EF02DE1
:10201000880E991E440C551C5A8649868EE299E317
:102020000297480E591E5C864B860F2EF0E2CF2E8B
:10203000F9E3DF2EF02D0F2EF1E02F2EFAE33F2EE5
:10204000F02D35015401D40112968D919C91139776
:10205000009709F0A0C08D919C91119713969C93C5
:102060008E931297EB81FC816081718122EC37E3C2
:10207000EE24FF24C701880F991F8E0D9F1D880F26
:10208000991FDC01A654B84CC70101969E878D8725
:102090008D919D918617970709F06BC0CA01880F33
:1020A000991F8C0D9D1D4D845E84FC0151824082E0
:1020B00040FF5DC0C801880F991F8F51954CFC01EE
:1020C0008081918184159505F1F4CA010197880FEB
:1020D000991F8C0D9D1DFC018081918184159505B2
:1020E0004CF4F501808191818330910561F582E0A6
:1020F00090E034C0F501808191818330910531F504
:1021000081E090E02BC0CA010197880F991F8C0DC8
:102110009D1DFC01808191814D845E84841595050F
:102120004CF4F501808191818330910591F481E037
:1021300090E014C0F501808191818330910561F4B4
:1021400082E090E00BC081E090E008C082E090E087
:1021500005C082E090E002C081E090E0F801EE0F5F
:10216000FF1FE20DF31D808391830F5F1F4F4F5FB1
:102170005F4F2A173B0709F08BCF0894E11CF11C35
:102180002A5F3F4FF2E1EF16F10409F073CF64E0EC
:1021900070E022E130E044245524689441F8840C36
:1021A000951C8B819C8102969C838B83AB85BC851F
:1021B0008A169B0609F046CF73010894E11CF11CB6
:1021C000C30180959095E981FA818E0F9F1F670169
:1021D000C80ED91E20934438309345386093F8399F
:1021E0007093F9395093F7394093F63910932F389B
:1021F00000932E38EEE2F9E38F819885880F991FBE
:102200008E0F9F1F8301000F111FE00FF11F6081D0
:102210007181DC018D919C910E943A02F801EB5E84
:10222000F54C91838083C701880F991F0F2EF5E12C
:10223000AF2EFAE3BF2EF02DA80EB91E09851A8520
:10224000025D164CED80FE80F701819191917F0136
:10225000608171810E943A02D5018D939D935D0149
:10226000E016F10689F7D092123AC092113A51C2A3
:102270001092F7391092F63910922F3810922E38AA
:1022800081E090E09093163A8093153A8B819C817F
:102290000197EEE2F9E3880F991F8E0F9F1F0B81C4
:1022A0001C81000F111FE00FF11F60817181FC0183
:1022B000808191810E943A02F801EB5EF54C918396
:1022C0008083F0CB1092F7391092F63910922F38A4
:1022D00010922E38F50131978EE299E3EE0FFF1F31
:1022E000E80FF91F8501000F111F800F911FDC01FE
:1022F0006D917C91808191810E943A02F801EB5EA0
:10230000F54C91838083B092123AA092113A01C2A7
:10231000E0912C38F0912D38DF01AA0FBB1FA65B8E
:10232000B74C8D939C933196F0932D38E0932C38D5
:1023300081E090E09093F9398093F839BF014091A2
:1023400042385091433841505040CA01880F991F7C
:10235000840F951F9C01220F331F220F331F220F62
:10236000331F281B390BD901A40FB51F80914038AA
:102370009091413801972AEF31E0829FA001839F1D
:10238000500D929F500D1124A40FB51FAA5BB54F9D
:10239000EE0FFF1FE65BF74C21E030E041E050E03C
:1023A000B6CDE0912C38F0912D38DF01AA0FBB1F7C
:1023B000A65BB74C8D939C933196F0932D38E093A8
:1023C0002C3881E090E09093F9398093F839BF017F
:1023D000409140385091413841505040CA01880FD7
:1023E000991F840F951F9C01220F331F220F331F4B
:1023F000220F331F281B390BD901A40FB51F809161
:102400003E3890913F3801972AEF31E0829FA0013A
:10241000839F500D929F500D1124A40FB51FAA5BEE
:10242000B54FEE0FFF1FE65BF74C21E030E024CD07
:10243000E0912C38F0912D38DF01AA0FBB1FA65B6D
:10244000B74C8D939C933196F0932D38E0932C38B4
:1024500081E090E09093F9398093F839BF01409181
:102460003E3850913F3841505040CA01880F991F63
:10247000840F951F9C01220F331F220F331F220F41
:10248000331F281B390BD901A40FB51F80913C388D
:1024900090913D3801972AEF31E0829FA001839F00
:1024A000500D929F500D1124A40FB51FAA5BB54F7C
:1024B000EE0FFF1FE65BF74C21E030E097CCE09198
:1024C0002C38F0912D38DF01AA0FBB1FA65BB74C4B
:1024D0008D939C933196F0932D38E0932C3881E0C6
:1024E00090E09093F9398093F839BF0140913C38DE
:1024F00050913D3841505040CA01880F991F840FB8
:10250000951F9C01220F331F220F331F220F331FF1
:10251000281B390BD901A40FB51F8091133A909154
:10252000143A01972AEF31E0829FA001839F500D5A
:10253000929F500D1124A40FB51FAA5BB54FEE0F4B
:10254000FF1FE65BF74C21E030E00ACCA0912C386D
:10255000B0912D38CD01880F991F865B974CFC01F7
:10256000318320831196B0932D38A0932C3881E0CD
:1025700090E09093F9398093F839BD01809140380B
:1025800090914138AC0141505040CA01880F991FC9
:10259000840F951F9C01220F331F220F331F220F20
:1025A000331F281B390BF901E40FF51F80913E38CA
:1025B00090913F3801972AEF31E0829FA001839FDD
:1025C000500D929F500D11244E0F5F1FFA01EA5BD0
:1025D000F54FCD01880F991FDC01A65BB74C21E0B8
:1025E00030E041E050E0C5C8E0912C38F0912D3842
:1025F000CF01880F991F865B974CDC012D933C938C
:102600003196F0932D38E0932C3881E090E0909350
:10261000F9398093F839BF0180913E3890913F3865
:10262000AC0141505040CA01880F991F840F951F7B
:102630009C01220F331F220F331F220F331F281B31
:10264000390BD901A40FB51F80913C3890913D38CA
:1026500001972AEF31E0829FA001839F500D929F46
:10266000500D11244A0F5B1FDA01AA5BB54FEE0F24
:10267000FF1FE65BF74C21E030E02DC8E0912C38DD
:10268000F0912D38CF01880F991F865B974CDC01A4
:102690002D933C933196F0932D38E0932C3881E0C4
:1026A00090E09093F9398093F839BF0180913C38DC
:1026B00090913D38AC0141505040CA01880F991F9C
:1026C000840F951F9C01220F331F220F331F220FEF
:1026D000331F281B390BD901A40FB51F8091133A62
:1026E0009091143A01972AEF31E0829FA001839FD5
:1026F000500D929F500D11244A0F5B1FDA01AA5B07
:10270000B54FEE0FFF1FE65BF74C21E030E00C9475
:10271000220B66960FB6F894DEBF0FBECDBFDF91D9
:10272000CF911F910F91FF90EF90DF90CF90BF90CE
:10273000AF909F908F907F906F905F904F903F9061
:102740002F900895259A2D9A0895269A2E9A0895E5
:10275000279A2F9A08950F931F93682F70E080E0B7
:1027600090E00E94E0192FEE39EC43E95FE30E940C
:10277000D11AB62FA72F382F292F60E070E080E8FC
:102780009FE3422F0B2F1A2F232F342FA9019801DB
:102790000E9447192AE939EF4EE255E40E946E1A69
:1027A00020E030E040E251E40E946E1A0E94AF192E
:1027B000882777FD8095982F0E94E2190E94AF1913
:1027C000862F972F23E08132920710F080E293E06A
:1027D0001F910F91089587B1876F87B988B180786D
:1027E00088B9089510BA11BA109207011092080121
:1027F000089581B18F6081B982B1807F82B9EAE0AA
:10280000F1E0808188618083EBE0F1E08081886184
:10281000808308956C98749A08956D98759A0895B8
:102820003B9A439808950E9410140E94EB130E9453
:10283000F2130E94A2130E94A5130E94A8130E94E3
:10284000F9130E940A140E940D14089586B188603D
:1028500088B9089586B1877F88B90895F894EAE623
:10286000F0E0808182608083EC9A78940895F894F7
:10287000EAE6F0E0808188608083ED9A789408959C
:102880001F920F920FB60F9211248F939F93AF93C5
:10289000BF938091343890913538A0913638B091FB
:1028A00037380196A11DB11D809334389093353887
:1028B000A0933638B0933738BF91AF919F918F91E5
:1028C0000F900FBE0F901F9018951F920F920FB68A
:1028D0000F9211248F939F93AF93BF9380913838B9
:1028E00090913938A0913A38B0913B380196A11DAA
:1028F000B11D8093383890933938A0933A38B0930B
:102900003B38BF91AF919F918F910F900FBE0F9069
:102910001F901895E1E8F0E010828CEF809385001D
:1029200081E08093840093E0909389008FEF8093FF
:10293000880090938B0080938A0090938D00809301
:102940008C0090938700809386008BEA80938000B0
:10295000109282008CE080830895E1E2F1E0108221
:102960008FEF8093250191E090932401109229012B
:102970008093280110922B0180932A0110922D013F
:1029800080932C0189EA809320018BE08083089555
:10299000EAE7F0E0108210927B0080E280937C00F6
:1029A00080E880BF86E880830895883018F098E03A
:1029B00090937B008770806280937C00EAE7F0E070
:1029C000808180648083808184FFFDCF8091790045
:1029D000EAE7F0E090819061908310927B00089587
:1029E000CF93DF93D82FC62F842F0E94D514482F62
:1029F00080932D398D2F6C2F50E023E030E00E9422
:102A0000AD01DF91CF9108958093280160932A0151
:102A1000089592B1907F8F70982B92B9089586E0B7
:102A20000E940915089589E00E940915089585E01E
:102A30000E94091508958AE00E940915089584E00E
:102A40000E940915089582E00E940915089581E009
:102A50000E940915089588E00E940915089580E0F4
:102A60000E94091508950F931F93CF93BC0180E036
:102A700090E00E94E01928E431EE42E850E40E9420
:102A800047190E94B419DC01CB01A0E0B0E010921C
:102A900034381092353810923638109237381092F8
:102AA00038381092393810923A3810923B38F1E0A9
:102AB000C0E040913438509135386091363870918B
:102AC0003738009138381091393820913A383091A0
:102AD0003B38EF2F481759076A077B0708F4EC2F9C
:102AE000EE2349F44F2F081719072A073B0708F46C
:102AF0004C2F4423F1F20E942F15CF911F910F917B
:102B00000895BC0180E090E00E94E01925EE30EDD0
:102B10004AEA50E40E9447190E94B419462F572FE1
:102B2000682F792F10923438109235381092363839
:102B3000109237388091343890913538A0913638DA
:102B4000B0913738481759076A077B0798F70E94F2
:102B50002F150895CF93DF93EC010E940F158AEF94
:102B60006AEF0E940415CE010E948115DF91CF917A
:102B70000895CF93DF93EC010E941315CE010E94BC
:102B80008115DF91CF910895CF93DF93EC010E94DF
:102B90001715CE010E943315DF91CF910895CF9381
:102BA000DF93EC018FEF6FEF0E9404150E941B155D
:102BB000CE010E943315DF91CF910895CF93DF931B
:102BC000EC010E941F158FEF6FEF0E940415CE01DC
:102BD000880F991F0E943315DF91CF910895CF93ED
:102BE000DF93EC010E9423158FEF6FEF0E94041515
:102BF000CE01880F991F0E943315DF91CF91089560
:102C0000CF93DF93EC010E942715CE01880F991F07
:102C10000E943315DF91CF910895CF93DF93EC019C
:102C20000E942B15CE01880F991F0E943315DF914A
:102C3000CF910895F8940E9413140E94C8140E9422
:102C4000AD140E948A140E942E140E9437147894A6
:102C50000895282F392F2F3F310519F010F02FEF4D
:102C600030E0822F932F089510928900682F70E032
:102C700080E090E00E94E0192BE734E14EEE5FE344
:102C80000E94471920E030E04CE052E40E94E31833
:102C90000E94B41960938800089510928B00682FE9
:102CA00070E080E090E00E94E0192BE734E14EEE06
:102CB0005FE30E94471920E030E04CE052E40E94BC
:102CC000E3180E94B41960938A00089510928D0051
:102CD000682F70E080E090E00E94E0192BE734E17B
:102CE0004EEE5FE30E94471920E030E04CE052E4F2
:102CF0000E94E3180E94B41960938C00089583E049
:102D0000809389008FEF80938800089583E08093FB
:102D10008B008FEF80938A00089583E080938D006D
:102D20008FEF80938C0008952F923F924F925F9285
:102D30006F927F928F929F92AF92BF92CF92DF92CB
:102D4000EF92FF920F931F93CF93DF930E941A1677
:102D50000E94D6000E943E018CE30E9466168FEF0F
:102D60009FEFACE281509040A040E1F700C000002E
:102D70000E94DA0944245524882499240F2EFAE469
:102D80006F2EF8E37F2EF02D0F2EF5E12F2EFAE3B4
:102D90003F2EF02D0F2EFAEFCF2EDD24F02D0F2E2B
:102DA000F8E7AF2EBB24F02D83E00E94D51480936A
:102DB000323882E00E94D5148093313881E00E943D
:102DC000D5148093303889E00E94D5148093FA3965
:102DD0000E94AB139093B03B8093AF3B8DE00E9479
:102DE000D514809314390E94AB139093FE398093CD
:102DF000FD398A3F9105A8F08091AF3B9091B03B9F
:102E00008A3F910570F0809131388D3308F488C184
:102E1000809130388D3328F4809132388D3308F426
:102E20007FC180E060E00E940415E4012196C401A6
:102E3000880F991FF301E80FF91FCE01880F991F22
:102E4000860D971D20813181DC018D919C91119718
:102E50002817390709F0BBC0C201880F991F8F5F7F
:102E6000954CFC01808191818130910509F580E0CC
:102E700060E00E9404158BE10E9466168FEF9FEFC1
:102E8000A8E081509040A040E1F700C000008CE332
:102E90000E9466168FEF9FEFACE281509040A040F9
:102EA000E1F700C000000894411C511C4E0149C0CC
:102EB00080E060E00E94041587E50E9466168FEFAF
:102EC0009FEFA8E081509040A040E1F700C00000D3
:102ED0008CE30E9466168FEF9FEFACE2815090402A
:102EE000A040E1F700C00000C201019687309105C3
:102EF00019F08930910519F580E060E00E94041511
:102F00008BE10E9466168FEF9FEFA1E18150904008
:102F1000A040E1F700C000008CE30E9466168FEF2E
:102F20009FEFACE281509040A040E1F700C000006C
:102F3000A2E0B0E08A0E9B1E4A0E5B1E02C02C016E
:102F40004E01B3E04B16510421F0E6E04E16510459
:102F500069F40E9426148FEF9FE7A6E1815090400C
:102F6000A040E1F700C000000E942A149AE0491630
:102F7000510469F50E9426140E942F158FEF9FEFD0
:102F8000A0EE81509040A040E1F700C000000E94F8
:102F90002A148FEF9FEFA0EE81509040A040E1F700
:102FA00000C0000080E090E0DF91CF911F910F9171
:102FB000FF90EF90DF90CF90BF90AF909F908F9059
:102FC0007F906F905F904F903F902F900895C40135
:102FD000880F991F820D931DDC018D919C91119793
:102FE00083309105F9F08430910581F182309105AB
:102FF00009F043C0C0E0D0E0219685E090E00E9457
:10300000EF150E942F1581E00E94D514809331386E
:103010008D3390F3C430D10578F380E060E00E94F6
:1030200004152BC0C0E0D0E0219685E090E00E941E
:10303000CF150E942F1582E00E94D514809330385E
:103040008D3390F3C430D10578F317C0C0E0D0E0E1
:10305000219685E090E00E94DE150E942F1583E006
:103060000E94D514809331388D3390F3C430D1054C
:1030700078F380E060E00E9404150894811C911CA4
:103080000F2EFEEBEF2EFAE0FF2EF02D83E00E94D4
:10309000D5148093323882E00E94D5148093313861
:1030A00081E00E94D514482F8093303880913238C7
:1030B00090E08C9D90018D9D300D9C9D300D1124D4
:1030C000C9018A569841B5010E944A1CFB01842F10
:1030D00090E08C9D90018D9D300D9C9D300D1124B4
:1030E000C9018A569841B5010E944A1C8601061BF7
:1030F000170BC6018E1B9F0B0E942916C82FC801F3
:103100000E942916D82F0E940F158C2F6D2F0E9418
:1031100004150894E108F108E114F10409F0B6CFB0
:1031200083E00E94D5148093323882E00E94D51447
:103130008093313881E00E94D514482F8093303835
:10314000809131388D3350F081E0809333380E9484
:103150000F158CED6CED0E94041526CE809132384F
:1031600090E08C9D90018D9D300D9C9D300D112423
:10317000C9018A569841B5010E944A1CFB01842F5F
:1031800090E08C9D90018D9D300D9C9D300D112403
:10319000C9018A569841B5010E944A1CE601C61B26
:1031A000D70BC6018E1B9F0B0E942916082FCE013C
:1031B0000E942916C82F0E940F15802F6C2F0E9485
:1031C0000415F2CD5058BB27AA270ED04DC13ED1D1
:1031D00030F043D120F031F49F3F11F41EF433C19D
:1031E0000EF4E095E7FB29C1E92F4FD180F3BA1720
:1031F000620773078407950718F071F49EF567C19D
:103200000EF4E0950B2EBA2FA02D0B01B901900101
:103210000C01CA01A0011124FF27591B99F0593F45
:1032200050F4503E68F11A16F040A22F232F342F8D
:103230004427585FF3CF469537952795A795F040DB
:103240005395C9F77EF41F16BA0B620B730B840BF0
:10325000BAF09150A1F0FF0FBB1F661F771F881FA8
:10326000C2F70EC0BA0F621F731F841F48F4879500
:1032700077956795B795F7959E3F08F0B3CF9395EF
:10328000880F08F09927EE0F9795879508950CD031
:10329000EBC0E3D040F0DAD030F021F45F3F19F01A
:1032A000CCC0511115C1CFC0F0D098F39923C9F308
:1032B0005523B1F3951B550BBB27AA27621773073C
:1032C000840738F09F5F5F4F220F331F441FAA1FF0
:1032D000A9F333D00E2E3AF0E0E830D091505040B0
:1032E000E695001CCAF729D0FE2F27D0660F771F5E
:1032F000881FBB1F261737074807AB07B0E809F040
:10330000BB0B802DBF01FF2793585F4F2AF09E3FD4
:10331000510568F092C0DCC05F3FECF3983EDCF3EF
:10332000869577956795B795F7959F5FC9F7880F4D
:10333000911D9695879597F90895E1E0660F771F9F
:10334000881FBB1F621773078407BA0720F0621B30
:10335000730B840BBA0BEE1F88F7E095089504D029
:103360006894B111B5C0089598D088F09F5790F037
:10337000B92F9927B751A0F0D1F0660F771F881F9A
:10338000991F1AF0BA95C9F712C0B13081F09FD0D9
:10339000B1E008959CC0672F782F8827B85F39F077
:1033A000B93FCCF3869577956795B395D9F73EF4F9
:1033B00090958095709561957F4F8F4F9F4F0895A1
:1033C000E89409C097FB3EF49095809570956195BF
:1033D0007F4F8F4F9F4F9923A9F0F92F96E9BB2775
:1033E0009395F695879577956795B795F111F8CFF1
:1033F000FAF4BB0F11F460FF1BC06F5F7F4F8F4F5C
:103400009F4F16C0882311F096E911C0772321F051
:103410009EE8872F762F05C0662371F096E8862FE9
:1034200070E060E02AF09A95660F771F881FDAF740
:10343000880F9695879597F9089597F99F6780E883
:1034400070E060E008959FEF80EC089500240A94F6
:103450001616170618060906089500240A9412166F
:103460001306140605060895092E0394000C11F4A2
:10347000882352F0BB0F40F4BF2B11F460FF04C04F
:103480006F5F7F4F8F4F9F4F089557FD9058440FA8
:10349000551F59F05F3F71F04795880F97FB991FB3
:1034A00061F09F3F79F08795089512161306140670
:1034B000551FF2CF4695F1DF08C0161617061806FD
:1034C000991FF1CF86957105610508940895E894D8
:1034D000BB2766277727CB0197F908950BD0C4CF78
:1034E000B5DF28F0BADF18F0952309F0A6CFABCFEF
:1034F0001124EECFCADFA0F3959FD1F3950F50E0D2
:10350000551F629FF001729FBB27F00DB11D639F95
:10351000AA27F00DB11DAA1F649F6627B00DA11D3B
:10352000661F829F2227B00DA11D621F739FB00DE1
:10353000A11D621F839FA00D611D221F749F332751
:10354000A00D611D231F849F600D211D822F762FEA
:103550006A2F11249F5750408AF0E1F088234AF0E7
:10356000EE0FFF1FBB1F661F771F881F9150504033
:10357000A9F79E3F510570F060CFAACF5F3FECF3F3
:10358000983EDCF3869577956795B795F795E7951F
:103590009F5FC1F7FE2B880F911D9695879597F930
:1035A0000895FA01EE0FFF1F30962105310599F1BC
:1035B0006115710561F48038BFE39B0749F1689498
:1035C0009038810561F08038BFEF9B0741F0992367
:1035D00042F5FF3FE1053105210511F1E89408941A
:1035E000E795D901AA2329F4AB2FBE2FF85FD0F3BA
:1035F00010C0FF5F70F4A695E0F7F73950F019F0AE
:10360000FF3A38F49F779F930CD00F9007FC9058A7
:1036100008953EF018CF60E070E080E89FE30895E1
:103620004FE79F775F934F933F932F939ED02F91B8
:103630003F914F915F9152DF05C019F40EF0FDCE1E
:1036400046CF01CF2ADFC8F39638C0F707F80F92AC
:10365000E8942BE33AEA48EB5FE74EDF0F920F92D4
:103660000F924DB75EB70F92C0D0E4EEF0E016D0E7
:103670004F915F91EF91FF91E595EE1FFF1F49F08C
:10368000FE57E0684427EE0F441FFA95E1F7419595
:10369000550B32D00F9007FE26C00895DF93CF93CD
:1036A0001F930F93FF92EF92DF927B018C0168943E
:1036B00005C0DA2EEF011EDFFE01E894A5912591E9
:1036C000359145915591AEF3EF018EDDFE019701E5
:1036D000A801DA9479F7DF90EF90FF900F911F9196
:1036E000CF91DF9108959B01AC0160E070E080E82C
:1036F0009FE3CDCDA2CEACC0D0DEE8F39923D9F3C1
:10370000940F511DBBF39150504094F059F0882311
:1037100032F0660F771F881F91505040C1F79E3FCF
:10372000510544F7880F911D9695879597F908954F
:103730005F3FACF0983E9CF0BB27869577956795E8
:10374000B79508F4B1609395C1F7BB0F58F711F422
:1037500060FFE8CF6F5F7F4F8F4F9F4FE3CFB8CEB3
:103760000EF076C070CE689468CE97DEC8F39923C9
:10377000D1F3C6F3DF93CF931F930F93FF92C92F1B
:10378000DD2788232AF02197660F771F881FDAF735
:1037900020E030E040E85FEB9FE3883920F0803E96
:1037A00030F021968F770FDDECE0F1E003C00BDD08
:1037B000E9E3F1E073DF8B01BE01EC01FB2E6F57F3
:1037C00071097595771F880B990BFCDD28E132E7AD
:1037D00041E35FE38FDEAF2D9801AE01FF900F91C3
:1037E0001F91CF91DF9100DD3FCEFA01DC01AA0FDE
:1037F000BB1F9B01AC01BF5728F422273327442766
:1038000050781FC0B75188F4AB2F002446953795E8
:103810002795011CA395D2F3002069F0220F331FD6
:10382000441FB395DAF30DD0CDCC61307105A0E81B
:103830008A07B94630F49B01AC01662777278827B1
:103840009078309621F0208331834283538308950A
:103850009F3F31F0915020F4879577956795B79504
:10386000880F911D9695879597F90895AA1BBB1B04
:1038700051E107C0AA1FBB1FA617B70710F0A61B70
:10388000B70B881F991F5A95A9F780959095BC0191
:10389000CD01089597FB092E07260AD077FD04D0A5
:1038A000E5DF06D000201AF4709561957F4F0895EA
:0E38B000F6F7909581959F4F0895F894FFCFFD
:1038BE0000000100000000000000000000000000F9
:1038CE0000000000000000000000000000000000EA
:1038DE0000000000000000000000000000000900D1
:1038EE0000000300000000000000000000000000C7
:1038FE0000000000000001000700000000000000B2
:10390E0000000000000000000000000000000700A2
:10391E000000030000000000000000000000000096
:10392E000000000000000000000000000000000089
:10393E000000000000000000000000000000070072
:10394E000000030000000000000000000000000066
:10395E000000000000000000000000000000000059
:10396E000000000000000000000000000000070042
:10397E000000030000000000000000000000000036
:10398E000000000000000000000000000000000029
:10399E000000000000000000000000000000070012
:1039AE000000010000000000000000000000000008
:1039BE0000000000000000000000000000000000F9
:1039CE0000000000000000000000000000000900E0
:1039DE0000000100000000000000000000000000D8
:1039EE0000000000000000000000000000000000C9
:1039FE0000000000000000000000000000000900B0
:103A0E0000000700000000000000000000000000A1
:103A1E000000000000000000000000000000000098
:103A2E000000000000000000000000000000030085
:103A3E000000070000000000000000000000000071
:103A4E000000000000000000000000000000000068
:103A5E000000000000000000000000000000030055
:103A6E000000070000000000000000000000000041
:103A7E000000000000000000000000000000000038
:103A8E000000000000000000000000000000030025
:103A9E000000070000000000000000000000000011
:103AAE000000000000000000000000000000000008
:103ABE0000000000000000000000000000000300F5
:103ACE0000000900000000000000000000000000DF
:103ADE0000000000070001000000090000000000C7
:103AEE0000000000000000000000000000000100C7
:103AFE0000000000000000000000000000000000B8
:103B0E0000000000000000000300000000000000A4
:103B1E000000000000000000000000000000000097
:103B2E000000070000000000000000000000000080
:103B3E000000000000000000000000000000000077
:103B4E000000000000000000000000000000030064
:103B5E000000070000000000000000000000000050
:103B6E000000000000000000000000000000000047
:103B7E000000000000000000000000000000030034
:103B8E000000070000000000000000000000000020
:103B9E000000000000000000000000000000000017
:103BAE000000000000000000000000000000030004
:103BBE0000000100000000000000000000000000F6
:103BCE0000000000000000000000000000000000E7
:103BDE0000000000000000000000000000000900CE
:103BEE0000000100000000000000000000000000C6
:103BFE0000000000000000000000000000000000B7
:103C0E00000000000000000000000000000009009D
:103C1E000000030000000000000000000000000093
:103C2E000000000000000000000000000000000086
:103C3E00000000000000000000000000000007006F
:103C4E000000030000000000000000000000000063
:103C5E000000000000000000000000000000000056
:103C6E00000000000000000000000000000007003F
:103C7E000000030000000000000000000000000033
:103C8E000000000000000000000000000300000023
:103C9E00000000000000000000000000000007000F
:103CAE000000000000000000000000000000000006
:103CBE0000000000000000000000090000000000ED
:103CCE0000000000000000000000000000000000E6
:103CDE0000000000010002000300040005000600C1
:103CEE0007000600050004000300020002000300A6
:103CFE00040005000600070006000500040004008D
:103D0E00010000000100020003000400050006008F
:103D1E000500040003000200010001000200030080
:103D2E000400050006000500040003000300020065
:103D3E00010000000100020003000400050006005F
:103D4E000500040003000200020003000400050049
:103D5E000600070006000500040004000300020030
:103D6E00010000000100020003000400050006002F
:103D7E000500040003000300040005000600070010
:103D8E0008000700060005000500040003000200FD
:103D9E0001000000010002000300040005000600FF
:103DAE0005000400040005000600070008000900D5
:103DBE0008000700060006000500040003000200CC
:103DCE0001000000010002000300040005000600CF
:103DDE000500050006000700080009000A0009009A
:103DEE00080007000700060005000400030002009B
:103DFE00010000000100020003000400050006009F
:103E0E0006000700080009000A0009000800070064
:103E1E00060006000700060005000400030002006D
:103E2E00010000000100020003000400050007006D
:103E3E00080009000A000900080007000600050036
:103E4E000500060005000600050004000300020040
:103E5E00010000000100020003000400060007003C
:103E6E000800090008000700060005000400040011
:103E7E000500040005000600050004000300020012
:103E8E00010000000100020003000500060007000B
:103E9E0008000700060005000400030003000400EC
:103EAE0003000400050006000500040003000200E4
:103EBE0001000000010002000400050006000700DA
:103ECE0006000500040003000200020003000200C9
:103EDE0003000400050006000500040003000200B4
:103EEE0001000000010003000400050006000500AB
:103EFE0004000300020001000100020001000200A4
:103F0E000300040005000600050004000300020083
:103F1E000100000002000300040005000600050079
:103F2E000400030002000200020001000200030070
:103F3E00040005000600070006000500040003004B
:103F4E00020000000100020003000400050006004C
:103F5E000500040004000300020003000400050035
:103F6E000600070008000700060005000400030015
:103F7E00010000000100020003000400050006001D
:103F8E0005000500040003000400050006000700FC
:103F9E0008000900080007000600050004000200E2
:103FAE0001000000010002000300040005000600ED
:103FBE0006000500040005000600070008000900C1
:103FCE000A000900080007000600050003000200B1
:103FDE0001000000010002000300040005000700BC
:103FEE000600050006000700080009000A00090087
:103FFE00080007000600050006000400030002008A
:10400E00010000000100020003000400060007008A
:10401E0006000700080009000A0009000800070052
:10402E000600050004000500050004000300020060
:10403E00010000000100020003000500060005005B
:10404E00060007000800090008000700060005002A
:10405E000400030004000600050004000300020033
:10406E00010000000100020004000500040005002C
:10407E000600070008000700060005000400030004
:10408E000200030005000600050004000300020004
:10409E0001000000010002000400030004000500FE
:1040AE0006000700060005000400030002000100E0
:1040BE0002000400050006000500040003000200D3
:1040CE0001000000020004000300040005000600C9
:1040DE0007000600050004000300020001000200B4
:1040EE00040005000600070006000500040003009A
:1040FE0002000000010000000000000000000000AF
:10410E00000000000000000000000100020000009E
:10411E000000000000000000000000000000000091
:10412E00010002000300000000000000000000007B
:10413E000000000000000100020003000400000067
:10414E00000000000000000000000000010002005E
:10415E000300040005000000000000000000000045
:10416E00000001000200030004000500060000002C
:10417E000000000000000000010002000300040027
:10418E00050006000700000000000000000001000E
:10419E0002000300040005000600070008000000EE
:1041AE0000000000010002000D000C000B000A00D0
:1041BE0009000000000000000000010002000D00D8
:1041CE000C000B000A0000000000000000000000C0
:1041DE00010002000D000C000B00000000000000AA
:1041EE00000000000000010002000D000C000000A5
:1041FE0000000000000000000000000001000200AE
:10420E000D00000000000000000000000000000093
:10421E000000010002000E0000000000000000007F
:10422E000000000000000000010002000E000F0060
:10423E00000000000000000000000000000001006F
:10424E0002000E000F001000000000000000000031
:10425E0000000000010002000E000F00100011000F
:10426E0000000000000000000000010002000E002F
:10427E000F001000110012000000000000000000EE
:10428E00010002000E000F001000110012001300BA
:10429E00000000000000010002000D000C001600DE
:1042AE0015001400000000000000000001000200D4
:1042BE000D000C00160015000000000000000000AC
:1042CE000000010002000D000C00160000000000AE
:1042DE000000000000000000010002000D000C00B4
:1042EE0017000000000000000000000000000200A7
:1042FE0001000000000000000000000000000000AF
:10430E00000000000200000000000000000000009D
:10431E00000000000000000000000200030000008A
:10432E00000000000000000000000000000000007F
:10433E000200030004000000000000000000000066
:10434E000000000000000200030004000500000051
:10435E00000000000000000000000000020003004A
:10436E000400050006000000000000000000000030
:10437E000000020003000400050006000700000014
:10438E000000000000000000020003000400050011
:10439E0006000700080000000000000000000200F8
:1043AE000D000C000B000A000900000000000000C8
:1043BE000000000002000D000C000B000A000000BF
:1043CE000000000000000000000002000D000C00C4
:1043DE000B000000000000000000000000000000C4
:1043EE0002000D000C0000000000000000000000A4
:1043FE0000000000000002000D00000000000000A0
:10440E0000000000000000000000000002000E008E
:10441E00000000000000000000000000000000008E
:10442E00000002000E000F0000000000000000005F
:10443E00000000000000000002000E000F0010003F
:10444E00000000000000000000000000000002005C
:10445E000E000F0010001100000000000000000010
:10446E000000000002000E000F00100011001200EC
:10447E000000000000000000000002000E000F000F
:10448E0010001100120013000000000000000000D8
:10449E0002000D000C0016001500140000000000B4
:1044AE0000000000000002000D000C0016001500B8
:1044BE0000000000000000000000000002000D00DF
:1044CE000C001600000000000000000000000000BC
:1044DE00000002000D000C0017000000000000009C
:1044EE0000000000000000000300020001000000B8
:1044FE0000000000000000000000000000000300AB
:10450E00020000000000000000000000000000009B
:10451E00000000000300000000000000000000008A
:10452E000000000000000000000003000400000076
:10453E00000000000000000000000000000000006D
:10454E000300040005000000000000000000000051
:10455E00000000000000030004000500060000003B
:10456E000000000000000000000000000300040036
:10457E00050006000700000000000000000000001B
:10458E0000000300040005000600070008000000FC
:10459E0000000000000000000300040005000600FB
:1045AE0007000800090000000000000000000300E2
:1045BE0002000D000C000B000A00000000000000BD
:1045CE0000000000030002000D000C000B000000B4
:1045DE0000000000000000000000030002000D00BB
:1045EE000C000000000000000000000000000000B1
:1045FE00030002000D00000000000000000000009B
:10460E00000000000000030002000E000000000089
:10461E000000000000000000000000000300020087
:10462E000E000F000000000000000000000000005F
:10463E000000030002000E000F001000000000003A
:10464E000000000000000000030002000E000F003A
:10465E001000110000000000000000000000030028
:10466E0002000E000F0010001100120000000000EA
:10467E0000000000030002000E000F0010001100E9
:10468E0012001300000000000000030002000D00E5
:10469E000C001600150014000000000000000000C1
:1046AE00030002000D000C001600150000000000B3
:1046BE00000000000000030002000D000C001600B8
:1046CE0000000000000000000000000003000200D7
:1046DE000D000C001700000000000000000000009C
:1046EE0000000400030002000100000000000000B2
:1046FE0000000000000000000400030002000000A3
:10470E000000000000000000000000000000040097
:10471E000300000000000000000000000000000088
:10472E000000000004000000000000000000000077
:10473E000000000000000000000004000500000062
:10474E00000000000000000000000000000000005B
:10475E00040005000600000000000000000000003C
:10476E000000000000000400050006000700000025
:10477E000000000000000000000000000400050022
:10478E000600070008000000000000000000000006
:10479E0000000400050006000700080009000000E4
:1047AE0000000000000000000400050006000700E5
:1047BE00080009000A0000000000000000000400CC
:1047CE00030002000D000C000B00000000000000B2
:1047DE00000000000400030002000D000C000000A9
:1047EE0000000000000000000000040003000200B2
:1047FE000D0000000000000000000000000000009E
:10480E000400030002000E00000000000000000083
:10481E000000000000000400030002000E000F0064
:10482E000000000000000000000000000400030073
:10483E0002000E000F00100000000000000000003B
:10484E0000000400030002000E000F001000110013
:10485E0000000000000000000400030002000E0033
:10486E000F001000110012000000000000000400F4
:10487E00030002000E000F001000110012001300C2
:10488E00000000000400030002000D000C001600E2
:10489E0015001400000000000000040003000200D8
:1048AE000D000C00160015000000000000000000B6
:1048BE000400030002000D000C00160000000000B2
:1048CE000000000000000400030002000D000C00B8
:1048DE0017000000000000000000000005000400AA
:1048EE0003000200010000000000000000000000B4
:1048FE00000005000400030002000000000000009C
:10490E00000000000000000005000400030000008D
:10491E000000000000000000000000000000050084
:10492E000400000000000000000000000000000075
:10493E000000000005000000000000000000000064
:10494E00000000000000000000000500060000004E
:10495E000000000000000000000000000000000049
:10496E000500060007000000000000000000000027
:10497E00000000000000050006000700080000000F
:10498E00000000000000000000000000050006000E
:10499E0007000800090000000000000000000000F1
:1049AE000000050006000700080009000A000000CC
:1049BE0000000000000000000500060007000800CF
:1049CE0009000A000B0000000000000000000500B6
:1049DE000400030002000D000C00000000000000A7
:1049EE000000000005000400030002000D0000009E
:1049FE00000000000000000000000500040003009D
:104A0E0002000E0000000000000000000000000088
:104A1E0005000400030002000E000F00000000005D
:104A2E0000000000000005000400030002000E005C
:104A3E000F00100000000000000000000500040040
:104A4E00030002000E000F00100011000000000015
:104A5E00000005000400030002000E000F0010000D
:104A6E001100120000000000050004000300020007
:104A7E000E000F00100011001200130000000500C0
:104A8E000400030002000D000C00160015001400B7
:104A9E000000000005000400030002000D000C00E1
:104AAE0016001500000000000000050004000300C1
:104ABE0002000D000C0016000000000000000000B7
:104ACE0005000400030002000D000C00170000009A
:104ADE0000000000000006000500040003000200B4
:104AEE0001000000000000000000000006000500AC
:104AFE00040003000200000000000000000000009F
:104B0E000000060005000400030000000000000085
:104B1E000000000000000000060005000400000078
:104B2E000000000000000000000000000000060071
:104B3E000500000000000000000000000000000062
:104B4E000000000006000000000000000000000051
:104B5E00000000000000000000000600070000003A
:104B6E000000000000000000000000000000000037
:104B7E000600070008000000000000000000000012
:104B8E0000000000000006000700080009000000F9
:104B9E0000000000000000000000000006000700FA
:104BAE00080009000A0000000000000000000000DC
:104BBE00000006000700080009000A000B000000B4
:104BCE0000000000000000000600070008000900B9
:104BDE000A000B000C0000000000000000000600A0
:104BEE0005000400030002000D000000000000009C
:104BFE0000000000060005000400030002000E0085
:104C0E000000000000000000000006000500040087
:104C1E00030002000E000F00000000000000000064
:104C2E00060005000400030002000E000F00100035
:104C3E000000000000000600050004000300020052
:104C4E000E000F001000110000000000060005000D
:104C5E000400030002000E000F00100011001200ED
:104C6E000000060005000400030002000E000F0005
:104C7E0010001100120013000600050004000300CE
:104C8E0002000D000C0016001500140000000600B6
:104C9E0005000400030002000D000C0016001500B4
:104CAE0000000000060005000400030002000D00D5
:104CBE000C001600000000000000060005000400B5
:104CCE00030002000D000C001700000000000000A1
:104CDE0007000600050004000300020001000000AA
:104CEE00000000000000070006000500040003009D
:104CFE000200000000000000000000000700060097
:104D0E000500040003000000000000000000000089
:104D1E00000007000600050004000000000000006F
:104D2E000000000000000000070006000500000063
:104D3E00000000000000000000000000000007005E
:104D4E00060000000000000000000000000000004F
:104D5E00000000000700000000000000000000003E
:104D6E000000000000000000000007000800000026
:104D7E000000000000000000000000000000000025
:104D8E0007000800090000000000000000000000FD
:104D9E000000000000000700080009000A000000E3
:104DAE0000000000000000000000000007000800E6
:104DBE0009000A000B0000000000000000000000C7
:104DCE0000000700080009000A000B000C0000009C
:104DDE0000000000000000000700080009000A00A3
:104DEE000B000C000D00000000000000000007008A
:104DFE00060005000400030002000E000000000083
:104E0E000000000007000600050004000300020079
:104E1E000E000F0000000000000007000600050055
:104E2E000400030002000E000F001000000000003E
:104E3E000700060005000400030002000E000F002C
:104E4E00100011000000070006000500040003001A
:104E5E0002000E000F0010001100120007000800E3
:104E6E0009000A000B000C001600150014001300B8
:104E7E0000000700080009000A000B000C001600D5
:104E8E0015001400000000000700080009000A00C9
:104E9E000B000C00160015000000000000000700BB
:104EAE00080009000A000B000C00160000000000AC
:104EBE00000000000700080009000A000B000C00AB
:104ECE0017000000000000000000080007000600A8
:104EDE0005000400030002000100000000000000B5
:104EEE000800070006000500040003000200000091
:104EFE000000000000000800070006000500040086
:104F0E000300000000000000000000000800070081
:104F1E000600050004000000000000000000000074
:104F2E000000080007000600050000000000000059
:104F3E00000000000000000008000700060000004E
:104F4E00000000000000000000000000000008004B
:104F5E00070000000000000000000000000000003C
:104F6E00000000000800000000000000000000002B
:104F7E000000000000000000000008000900000012
:104F8E000000000000000000000000000000000013
:104F9E00080009000A0000000000000000000000E8
:104FAE00000000000000080009000A000B000000CD
:104FBE0000000000000000000000000008000900D2
:104FCE000A000B000C0000000000000000000000B2
:104FDE000000080009000A000B000C000D00000084
:104FEE000000000000000000080007000600050099
:104FFE000400030002000E00000000000000080084
:10500E000700060005000400030002000E000F005A
:10501E000000000008000700060005000400030061
:10502E0002000E000F00100000000800070006002E
:10503E0005000400030002000E000F001000110016
:10504E00080009000A000B000C00160015001400E1
:10505E00130012000000080009000A000B000C00EB
:10506E0016001500140013000000000008000900CF
:10507E000A000B000C0016001500140000000000C2
:10508E000000080009000A000B000C0016001500B5
:10509E000000000000000000080009000A000B00DC
:1050AE000C001600000000000000000000000800C8
:1050BE0009000A000B000C001700000000000000A1
:1050CE000000000009000A000B000C000D00020099
:1050DE000100000000000000000009000A000B00A3
:1050EE000C000D0002000000000000000000000097
:1050FE0009000A000B000C000D0002000300000066
:10510E00000000000000090008000700060005006E
:10511E00040000000000000000000000090008006C
:10512E00070006000500000000000000000000005F
:10513E000000090008000700060000000000000043
:10514E000000000000000000090008000700000039
:10515E000000000000000000000000000000090038
:10516E000800000000000000000000000000000029
:10517E000000000009000000000000000000000018
:10518E000000000000000000000009000A000000FE
:10519E000000000000000000000000000000000001
:1051AE0009000A000B0000000000000000000000D3
:1051BE0000000000000009000A000B000C000000B7
:1051CE0000000000000000000000000009000A00BE
:1051DE000B000C000D00000000000000000000009D
:1051EE00000009000A000B000C000D0002000E006A
:1051FE00000000000000000009000A000B000C0077
:10520E000D0002000E000F0000000000000009005B
:10521E000A000B000C000D0002000E000F00100023
:10522E000000000009000A000B000C000D00020037
:10523E000E000F0010001100000009000A000B0004
:10524E000C001600150014001300120000000000E0
:10525E0009000A000B000C001600150014001300C4
:10526E0000000000000009000A000B000C001600F0
:10527E0015001400000000000000000009000A00E4
:10528E000B000C00160015000000000000000000CE
:10529E00000009000A000B000C00160000000000C0
:1052AE00000000000000000009000A000B000C00C6
:1052BE0017000000000000000000000000000A00BF
:1052CE000B000C000D0002000100000000000000A9
:1052DE00000000000A000B000C000D000200000090
:1052EE00000000000000000000000A000B000C008F
:1052FE000D0002000300000000000000000000008E
:10530E000A0009000800070006000500040000005E
:10531E000000000000000A00090008000700060057
:10532E000500000000000000000000000A00090057
:10533E00080007000600000000000000000000004A
:10534E0000000A000900080007000000000000002D
:10535E0000000000000000000A0009000800000024
:10536E0000000000000000000000000000000A0025
:10537E000900000000000000000000000000000016
:10538E00000000000A000000000000000000000005
:10539E00000000000000000000000A000B000000EA
:1053AE0000000000000000000000000000000000EF
:1053BE000A000B000C0000000000000000000000BE
:1053CE000000000000000A000B000C000D000000A1
:1053DE000000000000000000000000000A000B00AA
:1053EE000C000D0002000E00000000000000000086
:1053FE0000000A000B000C000D0002000E000F0052
:10540E0000000000000000000A000B000C000D0060
:10541E0002000E000F0010000000000000000A0045
:10542E000B000C000D0002000E000F00100011000A
:10543E00000000000A000B000C00160015001400FE
:10544E00130012000000000000000A000B000C0008
:10545E0016001500140013000000000000000000EC
:10546E000A000B000C0016001500140000000000CE
:10547E000000000000000A000B000C0016001500D2
:10548E000000000000000000000000000A000B00F9
:10549E000C001600000000000000000000000000DC
:1054AE0000000A000B000C001700000000000000B6
:1054BE0000000000000000000B000C000D000200B8
:1054CE0001000000000000000000000000000B00C2
:1054DE000C000D00020000000000000000000000A3
:1054EE00000000000B000C000D0002000300000085
:1054FE00000000000000000000000B000C000D007A
:10550E000200030004000000000000000000000084
:10551E000B000A0009000800070006000500000045
:10552E000000000000000B000A0009000800070040
:10553E000600000000000000000000000B000A0042
:10554E000900080007000000000000000000000035
:10555E0000000B000A000900080000000000000017
:10556E0000000000000000000B000A00090000000F
:10557E0000000000000000000000000000000B0012
:10558E000A00000000000000000000000000000003
:10559E00000000000B0000000000000000000000F2
:1055AE00000000000000000000000B000C000000D6
:1055BE0000000000000000000000000000000000DD
:1055CE000B000C000D0000000000000000000000A9
:1055DE000000000000000B000C000D0002000E0089
:1055EE000000000000000000000000000B000C0096
:1055FE000D0002000E000F00000000000000000071
:10560E0000000B000C000D0002000E000F00100039
:10561E0000000000000000000B000C000D00020056
:10562E000E000F00100011000000000000000B0023
:10563E000C001600150014001300120000000000EC
:10564E00000000000B000C001600150014001300E3
:10565E00000000000000000000000B000C0016000F
:10566E001500140000000000000000000000000003
:10567E000B000C00160015000000000000000000DA
:10568E000000000000000B000C00160000000000DF
:10569E000000000000000000000000000B000C00E5
:1056AE0017000000000000000000000000000000D5
:1056BE0000000C000D0002000100000000000000C0
:1056CE0000000000000000000C000D0002000000B1
:1056DE0000000000000000000000000000000C00B0
:1056EE000D0002000300000000000000000000009A
:1056FE00000000000C000D0002000300040000007A
:10570E00000000000000000000000C000D00020070
:10571E00030004000500000000000000000000006F
:10572E000C000B000A00090008000700060000002C
:10573E000000000000000C000B000A000900080029
:10574E000700000000000000000000000C000B002D
:10575E000A00090008000000000000000000000020
:10576E0000000C000B000A00090000000000000001
:10577E0000000000000000000C000B000A000000FA
:10578E0000000000000000000000000000000C00FF
:10579E000B000000000000000000000000000000F0
:1057AE00000000000C0000000000000000000000DF
:1057BE00000000000000000000000C000D000000C2
:1057CE0000000000000000000000000000000000CB
:1057DE000C000D0002000E00000000000000000092
:1057EE000000000000000C000D0002000E000F0073
:1057FE000000000000000000000000000C000D0082
:10580E0002000E000F00100000000000000000005B
:10581E0000000C000D0002000E000F001000110021
:10582E0000000000000000000C001600150014001F
:10583E0013001200000000000000000000000C0029
:10584E0016001500140013000000000000000000F8
:10585E00000000000C0016001500140000000000EF
:10586E00000000000000000000000C0016001500F3
:10587E00000000000000000000000000000000001A
:10588E000C001600000000000000000000000000E8
:10589E000000000000000C001700000000000000D7
:1058AE000000000000000000000000000D000200DB
:1058BE0001000000000000000000000000000000D9
:1058CE0000000D00020000000000000000000000BB
:1058DE0000000000000000000D00020003000000A8
:1058EE0000000000000000000000000000000D009D
:1058FE000200030004000000000000000000000091
:10590E00000000000D00020003000400050000006E
:10591E00000000000000000000000D000200030067
:10592E00040005000600000000000000000000005A
:10593E000D000C000B000A00090008000700000013
:10594E000000000000000D000C000B000A00090012
:10595E000800000000000000000000000D000C0018
:10596E000B000A000900000000000000000000000B
:10597E0000000D000C000B000A00000000000000EB
:10598E0000000000000000000D000C000B000000E5
:10599E0000000000000000000000000000000D00EC
:1059AE000C000000000000000000000000000000DD
:1059BE00000000000D0000000000000000000000CC
:1059CE00000000000000000000000D0002000E00AC
:1059DE0000000000000000000000000000000000B9
:1059EE000D0002000E000F0000000000000000007D
:1059FE000000000000000D0002000E000F0010005D
:105A0E000000000000000000000000000D00020079
:105A1E000E000F001000110000000000000000003A
:105A2E0000000D000C0016001500140013001200EB
:105A3E0000000000000000000D000C001600150014
:105A4E0014001300000000000000000000000D0014
:105A5E000C001600150014000000000000000000ED
:105A6E00000000000D000C001600150000000000E4
:105A7E00000000000000000000000D000C001600E9
:105A8E000000000000000000000000000000000008
:105A9E000D000C00170000000000000000000000C8
:105AAE000000000000000E000200010000000000D7
:105ABE000000000000000000000000000E000200C8
:105ACE0000000000000000000000000000000000C8
